:100000000C94DA000C9402010C9402010C9402018D
:100010000C9402010C9402010C9402010C94020154
:100020000C9402010C9402010C9402010C94020144
:100030000C9402010C9402010C9402010C94020134
:100040000C945E050C9402010C94CE050C94A8054A
:100050000C9402010C9402010C9402010C94020114
:100060000C9402010C94020100407A10F35A00A093
:10007000724E18090010A5D4E80000E87648170071
:1000800000E40B54020000CA9A3B000000E1F505B1
:10009000000080969800000040420F000000A086FB
:1000A00001000000102700000000E803000000002D
:1000B0006400000000000A000000000001000000D1
:1000C00000002C76D888DC674F0823DFC1DFAE59EB
:1000D000E1B1B796E5E3E453C63AE651997696E87E
:1000E000E6C28426EB898C9B62ED407C6FFCEFBC02
:1000F0009C9F40F2BAA56FA5F490055A2AF75C932D
:100100006B6CF9676DC11BFCE0E40D47FEF520E662
:10011000B500D0ED902E0300943577050080841E45
:10012000080000204E0A000000C80C333333330FA0
:10013000986E12831141EF8D2114893BE65516CF3D
:10014000FEE6DB18D1844B381BF77C1D901DA4BB49
:10015000E424203284725E228100C9F124ECA1E5FE
:100160003D27000000080002010000030407000012
:1001700000000000000000000000250028002B0007
:1001800000000000240027002A00040404040404E2
:100190000404020202020202030303030303010236
:1001A0000408102040800102040810200102040805
:1001B0001020000611241FBECFEFD8E0DEBFCDBF58
:1001C00022E0A6E6B1E001C01D92A733B207E1F735
:1001D00011E0A0E0B1E0ECE0FEE102C005900D927C
:1001E000A636B107D9F710E0CAEDD0E004C02197D8
:1001F000FE010E94070DC93DD107C9F70E944B06B9
:100200000C94040F0C94000090E0FC01E256FE4FA9
:10021000249186579E4FFC018491882399F090E0A9
:10022000880F991FFC01E058FE4FA591B491FC0185
:10023000EA58FE4F859194918FB7F894EC91E22B98
:10024000EC938FBF089590E0FC01EE59FE4F24918E
:10025000FC01E256FE4F3491FC01E657FE4FE4915B
:10026000EE23C9F0222339F0233001F1A8F4213024
:1002700019F1223029F1F0E0EE0FFF1FEA58FE4F8E
:10028000A591B4918FB7F894EC91611126C0309587
:100290003E233C938FBF08952730A9F02830C9F042
:1002A000243049F7809180008F7D03C080918000C9
:1002B0008F7780938000DFCF84B58F7784BDDBCFCD
:1002C00084B58F7DFBCF8091B0008F778093B00095
:1002D000D2CF8091B0008F7DF9CF3E2BDACFAF9295
:1002E000BF92CF92DF92EF92FF920F931F93CF9323
:1002F000DF936C017B018B01040F151FEB015E0185
:10030000AE18BF08C017D10759F06991D601ED9119
:10031000FC910190F081E02DC6010995892B79F7B8
:10032000C501DF91CF911F910F91FF90EF90DF906A
:10033000CF90BF90AF900895FC01538D448D252F31
:1003400030E0842F90E0821B930B541710F0CF966F
:10035000089501970895FC01918D828D981761F0A1
:10036000A28DAE0FBF2FB11D5D968C91928D9F5FB8
:100370009F73928F90E008958FEF9FEF0895FC0197
:10038000918D828D981731F0828DE80FF11D858D4A
:1003900090E008958FEF9FEF08952FB7F894809124
:1003A0007A0190917B01A0917C01B0917D012FBFDA
:1003B0008093860190938701A0938801B09389016F
:1003C0008EE791E00E94BF0197FF26C02FB7F894F7
:1003D00080917A0190917B01A0917C01B0917D0187
:1003E0002FBF4091860150918701609188017091E3
:1003F0008901841B950BA60BB70B4091820150918C
:100400008301609184017091850184179507A60787
:10041000B707B0F28FEF9FEF08958F929F92AF9240
:10042000BF92CF92DF92EF92FF92CF93DF930E9421
:10043000CD01FC0197FD88C08D32910509F04CC0BB
:10044000812C912C80E8A82E8FE3B82EC12CD12CC2
:100450007601C0E0D0E0E130F10559F1ED32F1056F
:1004600009F447C0EE32F10509F445C0CF01C09749
:100470000A97F8F4AAE0B0E0A70196010E948E0C5A
:100480006F01FF0FEE08FF08C60ED71EE81EF91E0B
:1004900080E3C81AD108E108F108CC2351F02DEC13
:1004A0003CEC4CEC5DE3C501B4010E94D00B4B0168
:1004B0005C018EE791E00E94AB010E94CD01FC013E
:1004C000C0970A9740F2EE32F105B9F4CC2319F245
:1004D000CD2FD11118C025C0C0970A9708F4B0CF0E
:1004E000EE32F10509F4ACCF8EE791E00E94AB014A
:1004F0009ECFD1E0DECFC1E0DCCFE130F10509F4E1
:10050000AACFDD2341F0F094E094D094C094C11CB4
:10051000D11CE11CF11CC701B6010E94710BCC2358
:1005200041F0C701B6010E94710BA50194010E9420
:10053000D00BDF91CF91FF90EF90DF90CF90BF90E5
:10054000AF909F908F90089560E070E0CB01F1CF65
:10055000FC01918D228D892F90E0805C9F4F821B42
:1005600091098F73992708958EE791E00E94A80260
:1005700021E0892B09F420E0822F089580E090E0AB
:10058000892B29F00E94B40281110C940000089577
:10059000FC01A48DA80FB92FB11DA35ABF4F2C91F8
:1005A000848D90E001968F739927848FA689B789EF
:1005B0002C93A089B1898C91837080648C93938DE6
:1005C000848D981306C00288F389E02D80818F7D89
:1005D00080830895EF92FF920F931F93CF93DF9341
:1005E000EC0181E0888F9B8D8C8D98131AC0E8896F
:1005F000F989808185FF15C09FB7F894EE89FF893E
:100600006083E889F98980818370806480839FBFDB
:1006100081E090E0DF91CF911F910F91FF90EF90DB
:100620000895F62E0B8D10E00F5F1F4F0F731127EB
:10063000E02E8C8D8E110CC00FB607FCFACFE88926
:10064000F989808185FFF5CFCE010E94C802F1CFE4
:10065000EB8DEC0FFD2FF11DE35AFF4FF0829FB79A
:10066000F8940B8FEA89FB8980818062CFCFCF938A
:10067000DF93EC01888D8823B9F0AA89BB89E889CA
:10068000F9898C9185FD03C0808186FD0DC00FB670
:1006900007FCF7CF8C9185FFF2CF808185FFEDCFEE
:1006A000CE010E94C802E9CFDF91CF91089508954D
:1006B00090E080E00895FC0101900020E9F7319777
:1006C000AF01481B590BBC018BE192E00C946F0108
:1006D000CF93DF93D0E0C0E0009719F00E945B0356
:1006E000EC0184E291E00E945B038C0F9D1FDF917F
:1006F000CF910895CF93DF93EC0188819981009782
:1007000011F00E94AE0D198218821D821C821B827C
:100710001A82DF91CF910895FC0180819181009729
:1007200011F00C94AE0D0895CF93DF93EC0160E0CF
:100730008E810E94230161E08E810E94230160E08E
:100740008E810E9423018BE891E00197F1F7DF9100
:10075000CF910895CF92DF92EF92FF920F931F9364
:10076000CF93DF936C017C0187E0E80EF11CD0E0B1
:10077000C0E0062F10E0B8010C2E02C075956795F9
:100780000A94E2F76170F70181917F010E942301D1
:100790002196C430D10579F7C601DF91CF911F9121
:1007A0000F91FF90EF90DF90CF900C949403CF9235
:1007B000DF92EF92FF920F931F93CF93DF93EC01A1
:1007C000F62E642F8C810E9423018D818F3F19F0BA
:1007D00060E00E9423010F2D10E08F8584FF25C06B
:1007E0006E0187E0C80ED11CF12CE12CB8010E2C53
:1007F00002C0759567950A94E2F76170F6018191E0
:100800006F010E942301FFEFEF1AFF0A88E0E8164C
:10081000F10461F7CE01DF91CF911F910F91FF900D
:10082000EF90DF90CF900C949403B80184E075951D
:1008300067958A95E1F7CE010E94AA036F2DCE013C
:10084000DF91CF911F910F91FF90EF90DF90CF90AC
:100850000C94AA0340E0682F8BE192E00C94D7033C
:10086000CF93DF93613029F090912A0298609093A2
:100870002A0260932E0210922F0290E4909330028D
:1008800080933102805C8093320280911F020E942B
:100890000401809120028F3F11F00E940401809199
:1008A00021020E940401CBE1D2E09E012B51324093
:1008B00080912A0284FD0AC084E090E021962817E6
:1008C00039073CF48E810E940401EFCF88E090E06C
:1008D000F5CF8BE39DE00197F1F760E080911F0277
:1008E0000E94230160E0809121020E9423018091F7
:1008F00020028F3F19F060E00E94230180912A02BC
:1009000084FD39C063E08BE192E00E94AA03CBE44E
:10091000D6E4CE010197F1F763E08BE192E00E940B
:10092000AA032197F1F763E08BE192E00E94AA030A
:1009300083E592E00197F1F762E08BE192E00E949B
:10094000AA0380912A0280620E942A0484E0809394
:100950002B028CE00E942A0481E00E942A048BE38F
:100960009FE10197F1F782E080932C0286E0DF910E
:10097000CF910C942A0480620E942A048BE496E4AE
:100980000197F1F780912A0280620E942A0483E590
:1009900092E00197F1F780912A0280620E942A0476
:1009A000D0CF41E00E94D70381E090E008950F93FB
:1009B0001F93CF93DF93EC0188819981009759F0C1
:1009C0002A813B812617370730F081E0DF91CF91F4
:1009D0001F910F9108958B016F5F7F4F0E94370E1B
:1009E000009759F0998388831B830A832C813D816A
:1009F000232B59F7FC011082E8CF80E0E7CFEF927C
:100A0000FF920F931F93CF93DF93EC017B018A0139
:100A1000BA010E94D70481110BC0CE010E947A0353
:100A2000CE01DF91CF911F910F91FF90EF9008952C
:100A30001D830C83B701888199810E94FD0EF0CF40
:100A4000EF92FF920F931F93CF93DF93CDB7DEB753
:100A5000A1970FB6F894DEBF0FBECDBF7C01CB01CE
:100A6000BA01F70111821082138212821582148258
:100A70008E010F5F1F4F22E044E00E94E0080097C4
:100A8000C9F0FC0101900020E9F73197AF01481B44
:100A9000590BBC01C7010E94FF04A1960FB6F89440
:100AA000DEBF0FBECDBFDF91CF911F910F91FF90A1
:100AB000EF900895C7010E947A03EFCF1F920F9223
:100AC0000FB60F9211242F933F938F939F93AF9361
:100AD000BF9380917A0190917B01A0917C01B091AC
:100AE0007D013091790123E0230F2D3758F50196D0
:100AF000A11DB11D2093790180937A0190937B0110
:100B0000A0937C01B0937D01809175019091760155
:100B1000A0917701B09178010196A11DB11D80933C
:100B2000750190937601A0937701B0937801BF91FE
:100B3000AF919F918F913F912F910F900FBE0F908A
:100B40001F90189526E8230F0296A11DB11DD2CF44
:100B50001F920F920FB60F9211242F933F934F9332
:100B60005F936F937F938F939F93AF93BF93EF9315
:100B7000FF938EE791E00E94C802FF91EF91BF9131
:100B8000AF919F918F917F916F915F914F913F9125
:100B90002F910F900FBE0F901F9018951F920F92DC
:100BA0000FB60F9211242F938F939F93EF93FF9380
:100BB000E0918E01F0918F018081E0919401F0919C
:100BC000950182FD1BC09081809197018F5F8F738B
:100BD00020919801821741F0E0919701F0E0E258EE
:100BE000FE4F958F80939701FF91EF919F918F9189
:100BF0002F910F900FBE0F901F9018958081F4CF0A
:100C0000EEE7F1E01382128288EE93E0A0E0B0E01C
:100C100084839583A683B7838AE091E09183808360
:100C200085EC90E09587848784EC90E097878687B1
:100C300080EC90E0918B808B81EC90E0938B828BA9
:100C400082EC90E0958B848B86EC90E0978B868B82
:100C5000118E128E138E148EEBE1F2E0138212824B
:100C60008CE191E09183808387E084838FEF85839B
:100C700086E0868385E0878384E0808783E08187C0
:100C800082E082871386148615861686178661E0B1
:100C900080E10C943004CF93DF93CDB7DEB7689733
:100CA0000FB6F894DEBF0FBECDBF789484B58260D6
:100CB00084BD84B5816084BD85B5826085BD85B500
:100CC000816085BD80916E00816080936E0010927E
:100CD00081008091810082608093810080918100F9
:100CE000816080938100809180008160809380008A
:100CF0008091B10084608093B1008091B0008160E8
:100D00008093B00080917A00846080937A00809113
:100D10007A00826080937A0080917A00816080936B
:100D20007A0080917A00806880937A001092C100E6
:100D3000109272011092710110927401109273015D
:100D40008CE00E9404018BE00E940401109270016B
:100D500010926B0110926A0164E084E10E943004F9
:100D6000E0918E01F0918F0182E08083E0918A0111
:100D7000F0918B011082E0918C01F0918D018FEC4C
:100D8000808310929601E0919201F091930186E0A8
:100D90008083E0919001F091910180818061808356
:100DA000E0919001F0919101808188608083E091D1
:100DB0009001F0919101808180688083E0919001A1
:100DC000F091910180818F7D80838E010F5F1F4F95
:100DD0005524539489E1682E712C94E1A92EB12CED
:100DE0002FE3822E912C30E0232E30E0332E8091A1
:100DF00073019091740101966FEF70E00E94DF0C17
:100E0000909374018093730120917101309172016C
:100E1000821793070CF012C18CE00E940401EEE6E9
:100E2000F1E08491833009F4EDC050F48130E1F0B9
:100E3000823009F4E2C060E08CE00E94230118C017
:100E4000873009F4EBC0883009F4F0C0843099F79A
:100E500080918000806280938000E1E0F0E0F09378
:100E60008B00E0938A0004C094B5906894BD87BD60
:100E70008BE00E94040160E08BE00E9423018EE77A
:100E800091E00E94A802059714F18EE791E00E947C
:100E9000AB018A3209F0D6C0C0906601D0906701DC
:100EA000E0906801F09069010E940D029B01AC0185
:100EB0002093660130936701409368015093690164
:100EC000C701B6010E946A0B811150927001809196
:100ED0007001882309F485C0C0906C01D0906D0129
:100EE000E0906E01F0906F0120E030E048E452E4C1
:100EF000C701B6010E940D0D18160CF0BFC010926C
:100F00006B0110926A01109272011092710181E0DE
:100F10000E942A048BE39FE10197F1F7E1E08091C1
:100F20002E028111E0E0E195F0E0E55EFD4F84895D
:100F300080680E942A0487E291E00E945B0340914E
:100F40006601509167016091680170916901C80163
:100F50000E94200589819A810E946803C8010E942D
:100F60008C03E0912E02E23008F0CAC0E150F0E0BC
:100F7000E55EFD4F848980680E942A0485E391E044
:100F80000E945B0340916C0150916D0160916E0174
:100F900070916F01C8010E94200589819A810E9489
:100FA0006803C8010E948C03E0912E02E33008F030
:100FB000A9C0E150F0E0E55EFD4F848980680E94A1
:100FC0002A0480916A0190916B01892B09F09CC0E1
:100FD00080E491E00E9468038091700185258093F0
:100FE00070012114310409F402CF0E94B402882355
:100FF00009F4EECE0E940000EBCE84B5806284BD81
:1010000058BC36CF8091800080688093800081E05A
:1010100090E090938900809388002ACF8091B0005F
:1010200080688093B0005092B30022CF8091B000CE
:1010300080628093B0005092B4001ACF8CE00E947E
:101040000401F9CE8432A9F4C0906C01D0906D01F6
:10105000E0906E01F0906F010E940D029B01AC01C7
:1010600020936C0130936D0140936E0150936F019A
:1010700027CF8EE791E00E94AB0129CF20E030E03E
:1010800040EA51E4C701B6010E946A0B87FF09C01C
:10109000B0926B01A0926A019092720180927101EC
:1010A00036CFC0906601D0906701E0906801F09063
:1010B000690120E030E048EC51E4C701B6010E942C
:1010C0006A0B87FF08C010926B0110926A011092A0
:1010D00072011092710120E030E048EC51E4C70148
:1010E000B6010E940D0D87FD12CF8AE090E090932B
:1010F0006B0180936A01709272016092710107CF57
:10110000E1E035CFE2E056CF82E591E00E945B035B
:1011100080916A0190916B011C8A1B8A1E8A1D8A2C
:10112000188E1F8A4AE0B8010E94FE08F80101905B
:101130000020E9F73197AF01401B510BB801CE01F8
:1011400043960E94FF041A8219821C821B821E820F
:101150001D826B897C896115710529F04F89588D35
:10116000C8010E94FF04ED80FE809FEFE91AF90A92
:10117000B701C8010E94D7048823F1F029813A8180
:101180008D819E8163E371E0820F931F0E94FD0EAB
:10119000FE82ED824D815E8169817A818BE192E0F0
:1011A0000E946F01C8010E948C03CE0143960E94E9
:1011B0008C0382E691E00ECFC8010E947A03EACF49
:1011C000EF920F931F93CF93DF93E80134E047FD35
:1011D00034E1042E000C550B57FF03C05195419587
:1011E0005109E32E022F242FAE010E942309CE01C4
:1011F000DF91CF911F910F91EF900895BB274A3057
:1012000031F4992322F4BDE2909581959F4F0C947F
:101210000A09BB27FB015527AA27880F991FAA1F78
:10122000A41710F0A41B83955051B9F7A05DAA3301
:1012300008F0A95DA193009779F7B111B1931192CC
:10124000CB010C945A0BA9E0B0E0E9E2F9E00C9470
:101250009F0C6A01F22EB02E102FFBE3AF2EA016CA
:1012600008F41BE31F5F012F27E0AE014F5F5F4FC4
:101270000E94820ABC018981982F9970913009F4EB
:101280003FC09BE2E1FC04C09E2D9170E0FC3AC09F
:101290005E2D5071E82FE87083FF46C084E0911105
:1012A00001C083E0EF2DE81B8F1508F0E0E0D601C8
:1012B0008E2F20E2552351F1992329F0D6019C93DA
:1012C000C60101966C0196012D5F3F4FE2FE24C0DE
:1012D0008EE4D6018C9391E411969C93119712960B
:1012E0008C93D9018E2F90E281111BC0E20FF32F56
:1012F000F11D10828EEF9FEF2996ECE00C94BB0C51
:101300009DE2C6CF90E2C4CF2D9381508111FCCFD6
:10131000CE0ED11CE0E0D0CF8EE6D6018C9391E6C4
:10132000DBCF9D938150E0CF482F447082FF3DC0BA
:1013300084E0911101C083E08F1510F4EF2DE81BBC
:10134000D6018E2F20E2552309F1992329F0D601E9
:101350009C93C60101966C0196012D5F3F4FE2FE02
:101360001BC089E4D6018C938EE411968C9311975F
:1013700086E412968C93D9018E2F90E2882309F48B
:10138000B5CF9D938150FACF2D9381508111FCCF21
:10139000CE0ED11CE0E0D9CF89E6D6018C938EE643
:1013A00011968C93119786E6E4CF9B0177FF02C0DC
:1013B00030E020E0A1E0B0E0911102C0B0E0A0E098
:1013C000F9013196AE0FBF1F8B2C912CBB2009F475
:1013D00061C05401EFEFAE1ABE0AAA0DBB1DFA168A
:1013E0001B0619F014F04F2D4A1B511188C0E3FC65
:1013F00059C07601A42FB0E2A1114FC0C40ED11C78
:10140000992309F45BC040E0D6011196F601908360
:101410006D01552309F448C0012F060F9A81582FFA
:10142000507184FF03C0913309F4015010160CF081
:1014300047C0093008F008E0EEE2FE2E5B01A01A7A
:10144000B10885019194819491082F3F320729F4C6
:10145000D601FC92F60131966F016217730794F181
:10146000021713077CF5DB01A21BB30BAA24A3947C
:10147000B12CAC0EBD1EAA0DBB1D11968C91215036
:101480003109D601119628153905F4F0F60180834B
:101490006D01DBCFB12CA12CA0CFF701B1937F015F
:1014A000A150AACF9111B0CFD601942F50E302C022
:1014B0005D9391509111FCCFC40ED11C40E0ACCF94
:1014C00001E0BACF80E3DBCF6217730731F49633C4
:1014D00088F4953311F4552369F0F6018083FD01FA
:1014E000842F90E2811108C0A40FB11D1C9290E0DE
:1014F00080E002CF81E3F1CF91938150F3CF91113E
:1015000083CF8ACF283008F027E03327DA01990FFC
:10151000311D87FD916000966105710539F43260D7
:101520002E5F3D9330E32A95E1F708959F3F30F019
:1015300080387105610509F03C5F3C5F3D93913057
:1015400008F08068911DDF93CF931F930F93FF9254
:10155000EF92192F987F9695E92F96959695E90F1A
:10156000FF27EE53FF4F99273327EE24FF24A701CF
:10157000E70105900894079428F4360FE71EF81E3B
:10158000491F511D660F771F881F991F0694A1F7E9
:101590000590079428F4E70EF81E491F561FC11D39
:1015A000770F881F991F661F0694A1F7059007946F
:1015B00028F4F80E491F561FC71FD11D880F991F09
:1015C000661F771F0694A1F70590079420F4490F32
:1015D000561FC71FD81F990F661F771F881F0694B5
:1015E000A9F784911095177041F0D695C795579536
:1015F0004795F794E7941A95C1F7E8E6F0E0689408
:101600001590159135916591959105907FE27395AF
:10161000E118F10A430B560BC90BD009C0F7E10CD6
:10162000F11E431F561FC91FD01D7EF4703311F4E5
:101630008A95E6CFE894015030F0080F0AF40027AD
:10164000021708F4202F2395022F7A3328F079E32C
:101650007D932A95E9F710C07D932A9589F6069423
:1016600097956795379517951794E118F10A430BED
:10167000560BC90BD00998F023957E9173957A3358
:1016800008F070E37C932013B8F77E9170617D932E
:1016900030F0839571E37D9370E32A95E1F711248F
:1016A000EF90FF900F911F91CF91DF91992787FDC8
:1016B00090950895DC01FC01672F71917723E1F784
:1016C000329704C07C916D9370836291AE17BF070F
:1016D000C8F308950E94AC0B08F481E00895E894E3
:1016E00009C097FB3EF490958095709561957F4F6A
:1016F0008F4F9F4F9923A9F0F92F96E9BB27939518
:10170000F695879577956795B795F111F8CFFAF427
:10171000BB0F11F460FF1BC06F5F7F4F8F4F9F4F58
:1017200016C0882311F096E911C0772321F09EE8B6
:10173000872F762F05C0662371F096E8862F70E01C
:1017400060E02AF09A95660F771F881FDAF7880FF6
:101750009695879597F90895990F0008550FAA0B4C
:10176000E0E8FEEF16161706E807F907C0F01216B4
:101770001306E407F50798F0621B730B840B950BB7
:1017800039F40A2661F0232B242B252B21F408950C
:101790000A2609F4A140A6958FEF811D811D0895A9
:1017A0000E94E30B0C94540C0E94460C38F00E94EB
:1017B0004D0C20F0952311F00C943D0C0C94430C2F
:1017C00011240C94880C0E94650C70F3959FC1F352
:1017D000950F50E0551F629FF001729FBB27F00DDF
:1017E000B11D639FAA27F00DB11DAA1F649F662734
:1017F000B00DA11D661F829F2227B00DA11D621F83
:10180000739FB00DA11D621F839FA00D611D221F3C
:10181000749F3327A00D611D231F849F600D211D20
:10182000822F762F6A2F11249F5750409AF0F1F0A3
:1018300088234AF0EE0FFF1FBB1F661F771F881F0C
:1018400091505040A9F79E3F510580F00C943D0CFB
:101850000C94880C5F3FE4F3983ED4F3869577951B
:101860006795B795F795E7959F5FC1F7FE2B880FB2
:10187000911D9695879597F9089597F99F6780E848
:1018800070E060E008959FEF80EC089500240A94D2
:101890001616170618060906089500240A9412164B
:1018A0001306140605060895092E0394000C11F47E
:1018B000882352F0BB0F40F4BF2B11F460FF04C02B
:1018C0006F5F7F4F8F4F9F4F089557FD9058440F84
:1018D000551F59F05F3F71F04795880F97FB991F8F
:1018E00061F09F3F79F0879508951216130614064C
:1018F000551FF2CF4695F1DF08C0161617061806D9
:10190000991FF1CF86957105610508940895E894B3
:10191000BB2766277727CB0197F908950E94D00C43
:10192000A59F900DB49F900DA49F800D911D112433
:1019300008952F923F924F925F926F927F928F9273
:101940009F92AF92BF92CF92DF92EF92FF920F934E
:101950001F93CF93DF93CDB7DEB7CA1BDB0B0FB658
:10196000F894DEBF0FBECDBF09942A883988488815
:101970005F846E847D848C849B84AA84B984C884AB
:10198000DF80EE80FD800C811B81AA81B981CE0FA2
:10199000D11D0FB6F894DEBF0FBECDBFED01089587
:1019A000A29FB001B39FC001A39F700D811D1124A0
:1019B000911DB29F700D811D1124911D089597FBFB
:1019C000072E16F4009407D077FD09D00E94F30C7F
:1019D00007FC05D03EF4909581959F4F0895709532
:1019E00061957F4F0895AA1BBB1B51E107C0AA1F39
:1019F000BB1FA617B70710F0A61BB70B881F991FB0
:101A00005A95A9F780959095BC01CD010895EE0FE8
:101A1000FF1F0590F491E02D09940E94AC0B08F48F
:101A20008FEF08950F931F93CF93DF93823091052B
:101A300010F482E090E0E0913502F091360230E05F
:101A400020E0B0E0A0E0309799F42115310509F4C9
:101A50004AC0281B390B24303105D8F58A819B8177
:101A60006115710589F1FB0193838283FE0111C029
:101A7000408151810281138148175907E0F04817CE
:101A8000590799F4109761F012960C9312971396D8
:101A90001C933296CF01DF91CF911F910F91089542
:101AA0000093350210933602F4CF2115310551F021
:101AB0004217530738F0A901DB019A01BD01DF018C
:101AC000F801C1CFEF01F9CF909336028093350230
:101AD000CDCFFE01E20FF31F819391932250310984
:101AE00039832883D7CF2091330230913402232BBE
:101AF00041F420910201309103013093340220938C
:101B0000330220910001309101012115310541F48A
:101B10002DB73EB74091040150910501241B350BB0
:101B2000E0913302F0913402E217F307A0F42E1B88
:101B30003F0B2817390778F0AC014E5F5F4F241731
:101B4000350748F04E0F5F1F509334024093330225
:101B5000819391939FCFF0E0E0E09CCFCF93DF9310
:101B60000097E9F0FC01329713821282A0913502AE
:101B7000B0913602ED0130E020E01097A1F4208111
:101B80003181820F931F2091330230913402281744
:101B9000390709F061C0F0933402E0933302DF911A
:101BA000CF910895EA01CE17DF07E8F54A815B81FE
:101BB0009E0141155105B1F7E901FB83EA83499183
:101BC0005991C40FD51FEC17FD0761F480819181F5
:101BD0000296840F951FE9019983888382819381FE
:101BE0009B838A83F0E0E0E012968D919C9113979D
:101BF0000097B9F52D913C911197CD010296820F76
:101C0000931F20913302309134022817390739F697
:101C1000309751F51092360210923502B09334028B
:101C2000A0933302BCCFD383C28340815181840F00
:101C3000951FC817D90761F44E5F5F4F888199815E
:101C4000480F591F518340838A819B8193838283EC
:101C50002115310509F0B0CFF0933602E09335023B
:101C60009ECFFD01DC01C0CF13821282D7CFB0E03E
:101C7000A0E0EDE3FEE00C949B0C8C01009751F486
:101C8000CB010E94120D8C01C801CDB7DEB7E0E197
:101C90000C94B70CFC01E60FF71F9C012250310990
:101CA000E217F30708F49DC0D901CD91DC9111979B
:101CB000C617D70798F0C530D10530F3CE01049789
:101CC0008617970708F3C61BD70B2297C193D193AA
:101CD0006D937C93CF010E94AE0DD6CF5B01AC1A01
:101CE000BD0A4C018C0E9D1EA0913502B0913602AA
:101CF000512C412CF12CE12C109731F580913302BD
:101D0000909134028815990509F05CC04616570673
:101D100008F058C08091000190910101009741F4B2
:101D20008DB79EB74091040150910501841B950B1E
:101D3000E817F90708F055C0F0933402E093330236
:101D4000F90171836083A0CF8D919C9111971296B8
:101D50006C90129713967C901397A815B90559F5B6
:101D60006C0142E0C40ED11CCA14DB0420F1AC01AA
:101D70004A195B09DA011296159780F06282738224
:101D800051834083D9016D937C93E114F10471F088
:101D9000D7011396FC93EE93129776CF22968C0F71
:101DA0009D1FF90191838083F301EFCFF0933602F9
:101DB000E093350269CF4816590608F42C017D01DD
:101DC000D3019ACFCB010E94120D7C01009749F0FC
:101DD000AE01B8010E94F40EC8010E94AE0D870149
:101DE00053CF10E000E050CFFB01DC0102C00190B6
:101DF0000D9241505040D8F70895FB01DC0101904D
:0C1E00000D920020E1F70895F894FFCF48
:101E0C0000003702800000000000EA026F019C0114
:101E1C003703A802AB01BF0100000000D1046F0121
:101E2C00580357030D0A0054656D70657261747523
:101E3C0072653A200048756D69646974793A2000BE
:101E4C004E6F206E65656420746F207761746572C7
:101E5C002E005761746572696E6720726174653A01
:061E6C00200043430000CA
:00000001FF
