:100000000C946C000C9494000C9494000C94940048
:100010000C9494000C9494000C9494000C94940010
:100020000C9494000C9494000C9494000C94940000
:100030000C9494000C9494000C9494000C949400F0
:100040000C9487030C9494000C94F7030C94D10344
:100050000C9494000C9494000C9494000C949400D0
:100060000C9494000C94940097019E01AA01BB018A
:10007000BD01C401D001E101F701F9010000000058
:10008000240027002A0000000000250028002B0083
:1000900000000000230026002900040404040404D6
:1000A0000404020202020202030303030303010227
:1000B00004081020408001020408102001020408F6
:1000C00010200000000800020100000304070000E7
:1000D000000000000000290411241FBECFEFD8E06B
:1000E000DEBFCDBF11E0A0E0B1E0E2E6FDE002C07E
:1000F00005900D92A832B107D9F721E0A8E2B1E04E
:1001000001C01D92AB3EB207E1F710E0CCE6D0E0B3
:1001100004C02197FE010E946E06CB36D107C9F7B5
:100120000E9490040C94AF060C940000833081F080
:1001300028F4813099F08230A1F008958730A9F039
:100140008830B9F08430D1F4809180008F7D03C075
:10015000809180008F7780938000089584B58F7799
:1001600002C084B58F7D84BD08958091B0008F77E3
:1001700003C08091B0008F7D8093B0000895CF932D
:10018000DF93282F30E0F901EE53FF4F8491F901FE
:10019000E255FF4FD491F901E656FF4FC491CC23AD
:1001A00091F081110E949600EC2FF0E0EE0FFF1FFE
:1001B000E057FF4FA591B491EC91ED2381E090E0E1
:1001C00021F480E002C080E090E0DF91CF910895BB
:1001D0001F93CF93DF93282F30E0F901EE53FF4FA9
:1001E0008491F901E255FF4FD491F901E656FF4F92
:1001F000C491CC23C1F0162F81110E949600EC2FE0
:10020000F0E0EE0FFF1FEA57FF4FA591B4919FB7A3
:10021000F894111104C08C91D095D82302C0EC91B0
:10022000DE2BDC939FBFDF91CF911F910895CF9379
:10023000DF93EC018091D9019091DA01029709F5E1
:10024000C130D10569F024F42097D9F460E009C0E9
:10025000C230D10561F0C330D10599F460E008C027
:1002600061E08091DD010E94E80061E006C061E08C
:100270008091DD010E94E80060E08091DF010E9432
:10028000E8008091D9019091DA01049709F03FC00C
:10029000C130D105B9F04CF42097C9F561E08091E7
:1002A000DD010E94E80060E013C0C230D105D9F042
:1002B000C330D10561F561E08091DD010E94E80065
:1002C00060E017C060E08091DD010E94E80061E01D
:1002D0008091DF010E94E80061E08091E1010E94CD
:1002E000E80060E010C060E08091DD010E94E8005D
:1002F00061E08091DF010E94E80060E08091E1010F
:100300000E94E80061E08091E3010E94E800809192
:10031000D9019091DA01059709F086C0CA30D1055C
:1003200008F082C0FE01EC5CFF4F0C946E0660E0AA
:100330008091DD010E94E80061E061C060E0809191
:10034000DD010E94E80061E08091DF010E94E80089
:1003500060E05AC060E08091DD010E94E80061E049
:100360008091DF010E94E80060E08091E1010E943D
:10037000E80061E04EC060E001C061E08091DD0115
:100380000E94E80061E006C061E08091DD010E940A
:10039000E80060E08091DF010E94E80060E00BC0AF
:1003A00061E08091DD010E94E80060E08091DF0162
:1003B0000E94E80061E08091E1010E94E80061E0B4
:1003C00010C061E08091DD010E94E80060E0809152
:1003D000DF010E94E80061E08091E1010E94E800F5
:1003E00060E08091E3010E94E80060E017C061E0F6
:1003F00001C060E08091DD010E94E80060E0809132
:10040000DF010E94E80061E08091E1010E94E800C4
:1004100060E08091E3010E94E80061E08091E501E5
:10042000DF91CF910C94E800DF91CF910895CF93A5
:10043000DF9390E0FC01E255FF4F2491FC01E6566A
:10044000FF4F8491882361F190E0880F991FFC0190
:10045000E458FF4FC591D491FC01EA57FF4FA59195
:10046000B491611109C09FB7F894888120958223C7
:100470008883EC912E230BC0623061F49FB7F8940F
:100480008881322F309583238883EC912E2B2C93F7
:100490009FBF06C08FB7F894E8812E2B28838FBFAB
:1004A000DF91CF910895CF92DF92EF92FF920F9359
:1004B0001F93CF93DF936C017A018B01C0E0D0E0F2
:1004C000CE15DF0581F0D8016D918D01D601ED913A
:1004D000FC910190F081E02DC6010995892B11F066
:1004E0002196EECF7E01C701DF91CF911F910F9131
:1004F000FF90EF90DF90CF900895089580E090E016
:100500000895FC01538D448D252F30E0842F90E019
:10051000821B930B541710F0CF96089501970895FE
:10052000FC01918D828D981761F0828DDF01A80FFB
:10053000B11D5D968C91928D9F5F9F73928F90E01D
:1005400008958FEF9FEF0895FC01918D828D98178C
:1005500031F0828DE80FF11D858D90E008958FEFC9
:100560009FEF0895FC01918D228D892F90E0805C92
:100570009F4F821B91098F739927089584E391E01F
:100580000E94B20221E0892B09F420E0822F089515
:10059000FC01848DDF01A80FB11DA35ABF4F2C9120
:1005A000848D90E001968F739927848FA689B789EF
:1005B0002C93A089B1898C91837080648C93938DE6
:1005C000848D981306C00288F389E02D80818F7D89
:1005D00080830895EF92FF920F931F93CF93DF9341
:1005E000EC0181E0888F9B8D8C8D981305C0E88984
:1005F000F989808185FD26C0F62E0B8D10E00F5FF6
:100600001F4F0F731127E02E8C8DE8120CC00FB610
:1006100007FCFACFE889F989808185FFF5CFCE0103
:100620000E94C802F1CF8B8DFE01E80FF11DE35A45
:10063000FF4FF0829FB7F8940B8FEA89FB89808186
:1006400080620AC09FB7F894EE89FF896083E889C9
:10065000F98980818370806480839FBF81E090E00E
:10066000DF91CF911F910F91FF90EF900895CF935D
:10067000DF93EC01888D8823C9F0EA89FB898081AA
:1006800085FD05C0A889B9898C9186FD0FC00FB67C
:1006900007FCF5CF808185FFF2CFA889B9898C91BD
:1006A00085FFEDCFCE010E94C802E7CFDF91CF9149
:1006B000089580E090E0892B29F00E94BE0281110C
:1006C0000C9400000895CF93DF93009779F0FC011C
:1006D00001900020E9F73197AF01481B590BBC018D
:1006E00084E391E00E945302EC0102C0C0E0D0E03C
:1006F00042E050E062E171E084E391E00E94530245
:100700008C0F9D1FDF91CF9108950E94AA061F9222
:100710000F920FB60F9211242F933F938F939F93B5
:10072000AF93BF938091300190913101A09132013C
:10073000B091330130912F0123E0230F2D3720F4A6
:100740000196A11DB11D05C026E8230F0296A11D2B
:10075000B11D20932F018093300190933101A0931C
:100760003201B093330180912B0190912C01A09123
:100770002D01B0912E010196A11DB11D80932B0179
:1007800090932C01A0932D01B0932E01BF91AF91B6
:100790009F918F913F912F910F900FBE0F901F90BF
:1007A00018951F920F920FB60F9211242F933F931B
:1007B0004F935F936F937F938F939F93AF93BF9369
:1007C000EF93FF9384E391E00E94C802FF91EF91C1
:1007D000BF91AF919F918F917F916F915F914F9159
:1007E0003F912F910F900FBE0F901F9018951F9261
:1007F0000F920FB60F9211242F938F939F93EF9325
:10080000FF93E0914401F09145018081E0914A011C
:10081000F0914B0182FD12C0908180914D018F5F5C
:100820008F7320914E01821751F0E0914D01F0E05D
:10083000EC5CFE4F958F80934D0101C08081FF914C
:10084000EF919F918F912F910F900FBE0F901F905E
:1008500018950F931F93CF93DF93E4E3F1E0138296
:10086000128288EE93E0A0E0B0E084839583A683B3
:10087000B78384E091E09183808385EC90E0958755
:10088000848784EC90E09787868780EC90E0918B5A
:10089000808B81EC90E0938B828B82EC90E0958B47
:1008A000848B86EC90E0978B868B118E128E138E44
:1008B000148EC1EDD1E01B861A86198218821E8A19
:1008C0001F8A188E198E84E290E09F838E8386E0C3
:1008D00090E09D878C8785E090E09F878E8704E07D
:1008E00010E0198B088B83E090E09B8B8A8B61E092
:1008F00086E00E94170261E08E850E94170261E087
:1009000088890E94170261E08A890E9417021D8A65
:100910001C8A19870887DF91CF911F910F91089545
:10092000789484B5826084BD84B5816084BD85B5CA
:10093000826085BD85B5816085BD80916E008160D6
:1009400080936E001092810080918100826080937C
:10095000810080918100816080938100809180007E
:100960008160809380008091B10084608093B100A9
:100970008091B00081608093B00080917A008460A3
:1009800080937A0080917A00826080937A008091CF
:100990007A00816080937A0080917A0080688093E9
:1009A0007A001092C10061E086E00E94170261E0C7
:1009B00085E00E94170261E084E00E94170261E076
:1009C00083E00E94170262E087E00E94170262E063
:1009D00088E00E94170262E089E00E9417022091DD
:1009E000D7013091D801032E000C440B550B60E069
:1009F00077E883E993E00E944F06CA01B9012AE033
:100A000030E040E050E00E944F062093D301309345
:100A1000D4014093D5015093D601E0914401F09167
:100A2000450182E08083E0914001F0914101108214
:100A3000E0914201F09143018FEC808310924C01D0
:100A4000E0914801F091490186E08083E091460100
:100A5000F0914701808180618083E0914601F091AF
:100A60004701808188608083E0914601F0914701D1
:100A7000808180688083E0914601F0914701808108
:100A80008F7D808310922A0181E090E0909329016C
:100A90008093280154E0E52EF12C6AE0C62ED12C7B
:100AA00001E010E0AA24AA94BA2C9924939480918E
:100AB0002A018111A5C08091280190912901EC01A2
:100AC00097FF04C0CC27DD27C81BD90B18161906C1
:100AD0002CF41093D2010093D10106C0892B21F090
:100AE0001092D2011092D101209709F489C03FB72A
:100AF000F89480912B0190912C01A0912D01B0913F
:100B00002E0126B5A89B05C02F3F19F00196A11D07
:100B1000B11D3FBFBA2FA92F982F8827820F911D93
:100B2000A11DB11D42E0880F991FAA1FBB1F4A9546
:100B3000D1F74091E7015091E8016091E90170918E
:100B4000EA012C013D01441A550A660A770A4091D0
:100B5000D3015091D4016091D5017091D601441612
:100B600055066606770608F4BFCF8093E701909399
:100B7000E801A093E901B093EA012091D1013091FD
:100B8000D2018091DB019091DC012130310589F4A3
:100B900001969093DC018093DB012091D701309185
:100BA000D80182179307C1F41092DC011092DB0187
:100BB00013C0892B41F48091D7019091D801909373
:100BC000DC018093DB018091DB019091DC010197D6
:100BD0009093DC018093DB0121972091D901309122
:100BE000DA018091DB019091DC012530310511F4AF
:100BF000B60101C0B7010E943B060E94170174CFE5
:100C000087E00E94BF00892B79F48DE191E00E947A
:100C1000630387E00E94BF00892BD9F310922A0159
:100C2000109329010093280188E00E94BF00892BBE
:100C300079F485E191E00E94630388E00E94BF009F
:100C4000892BD9F310922A01B0922901A092280190
:100C500089E00E94BF00892B59F483E291E00E9451
:100C6000630389E00E94BF00892BD9F390922A0187
:100C70000E9459031CCF97FB072E16F4009407D04F
:100C800077FD09D00E94740607FC05D03EF49095CC
:100C900081959F4F0895709561957F4F0895052E1A
:100CA00097FB1EF400940E94660657FD07D00E9431
:100CB000880607FC03D04EF40C94660650954095C8
:100CC000309521953F4F4F4F5F4F089590958095F8
:100CD000709561957F4F8F4F9F4F0895EE0FFF1FC7
:100CE0000590F491E02D0994AA1BBB1B51E107C0AC
:100CF000AA1FBB1FA617B70710F0A61BB70B881FAC
:100D0000991F5A95A9F780959095BC01CD0108953A
:100D1000A1E21A2EAA1BBB1BFD010DC0AA1FBB1FFF
:100D2000EE1FFF1FA217B307E407F50720F0A21B71
:100D3000B30BE40BF50B661F771F881F991F1A94DE
:100D400069F760957095809590959B01AC01BD0108
:100D5000CF01089581E090E0F8940C94AF06F894E8
:020D6000FFCFC3
:100D620000000000EA02530281023703B20290023D
:100D7200A4020D0A00436F756E74657220436C6F96
:080D8200636B0053746F7000F5
:107E0000112484B714BE81FFF0D085E080938100F7
:107E100082E08093C00088E18093C10086E0809377
:107E2000C20080E18093C4008EE0C9D0259A86E02C
:107E300020E33CEF91E0309385002093840096BBD3
:107E4000B09BFECF1D9AA8958150A9F7CC24DD24C4
:107E500088248394B5E0AB2EA1E19A2EF3E0BF2EE7
:107E6000A2D0813461F49FD0082FAFD0023811F036
:107E7000013811F484E001C083E08DD089C08234E0
:107E800011F484E103C0853419F485E0A6D080C0E4
:107E9000853579F488D0E82EFF2485D0082F10E0AE
:107EA000102F00270E291F29000F111F8ED06801E7
:107EB0006FC0863521F484E090D080E0DECF843638
:107EC00009F040C070D06FD0082F6DD080E0C81688
:107ED00080E7D80618F4F601B7BEE895C0E0D1E017
:107EE00062D089930C17E1F7F0E0CF16F0E7DF06D8
:107EF00018F0F601B7BEE89568D007B600FCFDCFD4
:107F0000A601A0E0B1E02C9130E011968C91119780
:107F100090E0982F8827822B932B1296FA010C0160
:107F200087BEE89511244E5F5F4FF1E0A038BF0790
:107F300051F7F601A7BEE89507B600FCFDCF97BE46
:107F4000E89526C08437B1F42ED02DD0F82E2BD052
:107F50003CD0F601EF2C8F010F5F1F4F84911BD097
:107F6000EA94F801C1F70894C11CD11CFA94CF0C13
:107F7000D11C0EC0853739F428D08EE10CD085E9AC
:107F80000AD08FE07ACF813511F488E018D01DD067
:107F900080E101D065CF982F8091C00085FFFCCF94
:107FA0009093C60008958091C00087FFFCCF809118
:107FB000C00084FD01C0A8958091C6000895E0E648
:107FC000F0E098E1908380830895EDDF803219F02E
:107FD00088E0F5DFFFCF84E1DECF1F93182FE3DFCA
:107FE0001150E9F7F2DF1F91089580E0E8DFEE27F6
:047FF000FF270994CA
:027FFE00040479
:0400000300007E007B
:00000001FF
