:100000000C9462000C948A000C948A000C948A0070
:100010000C948A000C948A000C948A000C948A0038
:100020000C948A000C948A000C948A000C948A0028
:100030000C948A000C948A000C948A000C948A0018
:100040000C94F7020C948A000C9467030C944103FF
:100050000C948A000C948A000C948A000C948A00F8
:100060000C948A000C948A000000000024002700F1
:100070002A0000000000250028002B0000000000DE
:1000800023002600290004040404040404040202DA
:100090000202020203030303030301020408102007
:1000A0004080010204081020010204081020000012
:1000B0000008000201000003040700000000000027
:1000C0000000DC0411241FBECFEFD8E0DEBFCDBF9F
:1000D00011E0A0E0B1E0E0ECFAE002C005900D9282
:1000E000AC34B107D9F721E0ACE4B1E001C01D9216
:1000F000A83FB207E1F710E0C2E6D0E004C02197C4
:10010000FE010E945305C136D107C9F70E94990329
:100110000C945E050C940000833081F028F481304B
:1001200099F08230A1F008958730A9F08830B9F0B5
:100130008430D1F4809180008F7D03C08091800055
:100140008F7780938000089584B58F7702C084B53F
:100150008F7D84BD08958091B0008F7703C080911A
:10016000B0008F7D8093B0000895CF93DF93282F48
:1001700030E0F901E255FF4F8491F901E656FF4F57
:10018000D491F901EA57FF4FC491CC2391F081112A
:100190000E948C00EC2FF0E0EE0FFF1FE458FF4FA1
:1001A000A591B491EC91ED2381E090E021F480E001
:1001B00002C080E090E0DF91CF9108951F93CF932C
:1001C000DF93282F30E0F901E255FF4F8491F901C8
:1001D000E656FF4FD491F901EA57FF4FC491CC2363
:1001E000C1F0162F81110E948C00EC2FF0E0EE0F71
:1001F000FF1FEE58FF4FA591B4919FB7F8941111CE
:1002000004C08C91D095D82302C0EC91DE2BDC93F6
:100210009FBFDF91CF911F910895CF93DF9390E01F
:10022000FC01E656FF4F2491FC01EA57FF4F8491F1
:10023000882361F190E0880F991FFC01E859FF4F76
:10024000C591D491FC01EE58FF4FA591B491611175
:1002500009C09FB7F8948881209582238883EC9108
:100260002E230BC0623061F49FB7F8948881322F3F
:10027000309583238883EC912E2B2C939FBF06C04F
:100280008FB7F894E8812E2B28838FBFDF91CF9111
:100290000895CF92DF92EF92FF920F931F93CF9327
:1002A000DF936C017A018B01C0E0D0E0CE15DF0551
:1002B00081F0D8016D918D01D601ED91FC910190F5
:1002C000F081E02DC6010995892B11F02196EECF22
:1002D0007E01C701DF91CF911F910F91FF90EF90A9
:1002E000DF90CF900895089580E090E00895FC019C
:1002F000538D448D252F30E0842F90E0821B930B8B
:10030000541710F0CF96089501970895FC01918D30
:10031000828D981761F0828DDF01A80FB11D5D9667
:100320008C91928D9F5F9F73928F90E008958FEFD5
:100330009FEF0895FC01918D828D981731F0828D89
:10034000E80FF11D858D90E008958FEF9FEF0895E0
:10035000FC01918D228D892F90E0805C9F4F821B44
:1003600091098F73992708958BE591E00E94A80168
:1003700021E0892B09F420E0822F0895FC01848D6F
:10038000DF01A80FB11DA35ABF4F2C91848D90E0BF
:1003900001968F739927848FA689B7892C93A0899A
:1003A000B1898C91837080648C93938D848D981324
:1003B00006C00288F389E02D80818F7D80830895B7
:1003C000EF92FF920F931F93CF93DF93EC0181E0A5
:1003D000888F9B8D8C8D981305C0E889F989808161
:1003E00085FD26C0F62E0B8D10E00F5F1F4F0F739B
:1003F0001127E02E8C8DE8120CC00FB607FCFACF47
:10040000E889F989808185FFF5CFCE010E94BE0180
:10041000F1CF8B8DFE01E80FF11DE35AFF4FF08203
:100420009FB7F8940B8FEA89FB89808180620AC0AC
:100430009FB7F894EE89FF896083E889F989808104
:100440008370806480839FBF81E090E0DF91CF91D3
:100450001F910F91FF90EF900895CF93DF93EC01E0
:10046000888D8823C9F0EA89FB89808185FD05C0D4
:10047000A889B9898C9186FD0FC00FB607FCF5CF0E
:10048000808185FFF2CFA889B9898C9185FFEDCF56
:10049000CE010E94BE01E7CFDF91CF91089580E0A9
:1004A00090E0892B29F00E94B40181110C94000086
:1004B0000895009769F0FC0101900020E9F7319759
:1004C000AF01481B590BBC018BE591E00C9449012D
:1004D00080E090E00895CF93DF930E945902EC01F1
:1004E00082E191E00E9459028C0F9D1FDF91CF9114
:1004F00008958F929F92AF92BF92CF92DF92EF9228
:10050000FF920F931F93CF93DF93CDB7DEB7A197E1
:100510000FB6F894DEBF0FBECDBF6C01990FEE0889
:10052000FF08F7FE2BC06DE28BE591E00E94E00131
:100530008C0122273327A9012C193D094E095F0997
:1005400019A2CE0181967C019AE0892E912CA12CD2
:10055000B12CCA01B901A50194010E941D05605D7D
:10056000F70162937F01211531054105510589F796
:10057000CF010E945902080F191F1EC0A701960142
:1005800019A28E010F5D1F4F8AE0C82ED12CE12CDD
:10059000F12CCA01B901A70196010E941D05605DF9
:1005A000F80162938F01211531054105510589F745
:1005B000CF010E9459028C0182E191E00E94590210
:1005C000800F911FA1960FB6F894DEBF0FBECDBF6E
:1005D000DF91CF911F910F91FF90EF90DF90CF901F
:1005E000BF90AF909F908F9008950E9459051F92E1
:1005F0000F920FB60F9211242F933F938F939F93D7
:10060000AF93BF938091570190915801A0915901E8
:10061000B0915A013091560123E0230F2D3720F479
:100620000196A11DB11D05C026E8230F0296A11D4C
:10063000B11D209356018093570190935801A093C8
:100640005901B0935A018091520190915301A091A8
:100650005401B09155010196A11DB11D8093520125
:1006600090935301A0935401B0935501BF91AF9162
:100670009F918F913F912F910F900FBE0F901F90E0
:1006800018951F920F920FB60F9211242F933F933C
:100690004F935F936F937F938F939F93AF93BF938A
:1006A000EF93FF938BE591E00E94BE01FF91EF91E4
:1006B000BF91AF919F918F917F916F915F914F917A
:1006C0003F912F910F900FBE0F901F9018951F9282
:1006D0000F920FB60F9211242F938F939F93EF9346
:1006E000FF93E0916B01F0916C018081E0917101C9
:1006F000F091720182FD12C09081809174018F5F30
:100700008F7320917501821751F0E0917401F0E030
:10071000E55AFE4F958F8093740101C08081FF914F
:10072000EF919F918F912F910F900FBE0F901F907F
:100730001895789484B5826084BD84B5816084BD49
:1007400085B5826085BD85B5816085BD80916E006F
:10075000816080936E0010928100809181008260A0
:1007600080938100809181008160809381008091DD
:1007700080008160809380008091B10084608093CC
:10078000B1008091B00081608093B00080917A00C8
:10079000846080937A0080917A00826080937A00EE
:1007A00080917A00816080937A0080917A008068DD
:1007B00080937A001092C1008FEF90E090934E01E9
:1007C00080934D0181E080934F0180934C01109202
:1007D00051011092500161E08CE00E940D0161E036
:1007E0008BE00E940D0162E08AE00E940D0162E050
:1007F00089E00E940D0162E088E00E940D0162E044
:1008000087E00E940D01E0916B01F0916C0182E0A4
:100810008083E0916701F09168011082E0916901A5
:10082000F0916A018FEC808310927301E0916F0167
:10083000F091700186E08083E0916D01F0916E018E
:10084000808180618083E0916D01F0916E018081F3
:1008500088608083E0916D01F0916E0180818068F5
:100860008083E0916D01F0916E0180818F7D8083A6
:1008700085E191E00E946B020FEF10E0FF24F394FA
:1008800080915001909151010196B8010E94090593
:1008900090935101809350018AE00E94B500892B0A
:1008A00089F489E291E00E946B028AE00E94B5001F
:1008B000892BD9F380914F018F2580934F0190E0D0
:1008C0000E94790289E00E94B500892BD1F480E36F
:1008D00091E00E946B0289E00E94B500892BD9F358
:1008E00080914D0190914E01853F910514F40A9637
:1008F00002C08FEF90E090934E0180934D010E94D3
:10090000790288E00E94B500EC01892BC9F48AE3E2
:1009100091E00E946B0288E00E94B500892BD9F318
:1009200080914D0190914E018B30910514F0EC01B6
:100930002A97D0934E01C0934D01CE010E947902B7
:1009400087E00E94B500892B89F484E491E00E943D
:100950006B0287E00E94B500892BD9F380914C018E
:100960008F2580934C0190E00E94790280914F0185
:100970008823B9F0209150013091510180914D01AF
:1009800090914E012817390764F480914C01882317
:1009900011F061E007C060E08CE00E94DE0061E0E1
:1009A00005C060E08CE00E94DE0060E08BE00E9409
:1009B000DE000E944F0264CFEBE5F1E01382128269
:1009C00088EE93E0A0E0B0E084839583A683B783AC
:1009D00084E091E09183808385EC90E09587848723
:1009E00084EC90E09787868780EC90E0918B808BF9
:1009F00081EC90E0938B828B82EC90E0958B848BE2
:100A000086EC90E0978B868B118E128E138E148E4F
:100A1000089597FB072E16F4009407D077FD09D0B0
:100A20000E943F0507FC05D03EF4909581959F4FAD
:100A30000895709561957F4F0895A1E21A2EAA1B23
:100A4000BB1BFD010DC0AA1FBB1FEE1FFF1FA2177E
:100A5000B307E407F50720F0A21BB30BE40BF50B7B
:100A6000661F771F881F991F1A9469F76095709504
:100A7000809590959B01AC01BD01CF010895AA1B03
:100A8000BB1B51E107C0AA1FBB1FA617B70710F079
:100A9000A61BB70B881F991F5A95A9F780959095AB
:100AA000BC01CD010895EE0FFF1F0590F491E02DDC
:100AB000099481E090E0F8940C945E05F894FFCFDF
:100AC00000000000E001490177012D02A801860124
:100AD0009A010D0A004443204D6F746F72207369B0
:100AE0006D756C6174696F6E006F6E206F66660065
:100AF000696E63207370656564006465632073705C
:0C0B0000656564007265766572736500BF
:107E0000112484B714BE81FFF0D085E080938100F7
:107E100082E08093C00088E18093C10086E0809377
:107E2000C20080E18093C4008EE0C9D0259A86E02C
:107E300020E33CEF91E0309385002093840096BBD3
:107E4000B09BFECF1D9AA8958150A9F7CC24DD24C4
:107E500088248394B5E0AB2EA1E19A2EF3E0BF2EE7
:107E6000A2D0813461F49FD0082FAFD0023811F036
:107E7000013811F484E001C083E08DD089C08234E0
:107E800011F484E103C0853419F485E0A6D080C0E4
:107E9000853579F488D0E82EFF2485D0082F10E0AE
:107EA000102F00270E291F29000F111F8ED06801E7
:107EB0006FC0863521F484E090D080E0DECF843638
:107EC00009F040C070D06FD0082F6DD080E0C81688
:107ED00080E7D80618F4F601B7BEE895C0E0D1E017
:107EE00062D089930C17E1F7F0E0CF16F0E7DF06D8
:107EF00018F0F601B7BEE89568D007B600FCFDCFD4
:107F0000A601A0E0B1E02C9130E011968C91119780
:107F100090E0982F8827822B932B1296FA010C0160
:107F200087BEE89511244E5F5F4FF1E0A038BF0790
:107F300051F7F601A7BEE89507B600FCFDCF97BE46
:107F4000E89526C08437B1F42ED02DD0F82E2BD052
:107F50003CD0F601EF2C8F010F5F1F4F84911BD097
:107F6000EA94F801C1F70894C11CD11CFA94CF0C13
:107F7000D11C0EC0853739F428D08EE10CD085E9AC
:107F80000AD08FE07ACF813511F488E018D01DD067
:107F900080E101D065CF982F8091C00085FFFCCF94
:107FA0009093C60008958091C00087FFFCCF809118
:107FB000C00084FD01C0A8958091C6000895E0E648
:107FC000F0E098E1908380830895EDDF803219F02E
:107FD00088E0F5DFFFCF84E1DECF1F93182FE3DFCA
:107FE0001150E9F7F2DF1F91089580E0E8DFEE27F6
:047FF000FF270994CA
:027FFE00040479
:0400000300007E007B
:00000001FF
