:100000000C9458000C9480000C9480000C94800098
:100010000C9480000C9480000C9480000C94800060
:100020000C9480000C9480000C9480000C94800050
:100030000C9480000C9480000C9480000C94800040
:100040000C9411040C9480000C9480000C9480009B
:100050000C9480000C9480000C9480000C94800020
:100060000C945B040C948000000000002500280024
:100070002B00040404040404040402020202020229
:10008000030303030303010204081020408001025C
:1000900004081020010204081020000000080002DB
:1000A00001000003040700000000000000001C061F
:1000B00011241FBECFEFD8E0DEBFCDBF11E0A0E01E
:1000C000B1E0EAE6FCE002C005900D92A231B10772
:1000D000D9F721E0A2E1B1E001C01D92A13EB20733
:1000E000E1F710E0C8E5D0E004C02197FE010E94CE
:1000F0002D06C735D107C9F70E947A050C9433063F
:100100000C94000090E0FC01E656FF4F2491FC01A6
:10011000EA57FF4F3491FC01EE58FF4FE491EE2374
:10012000C9F0222339F0233001F1A8F4213019F16C
:10013000223029F1F0E0EE0FFF1FE859FF4FA591A3
:10014000B4918FB7F894EC91611126C030953E239D
:100150003C938FBF08952730A9F02830C9F0243090
:1001600049F7809180008F7D03C0809180008F7758
:1001700080938000DFCF84B58F7784BDDBCF84B5DB
:100180008F7DFBCF8091B0008F778093B000D2CF6E
:100190008091B0008F7DF9CF3E2BDACF3FB7F89436
:1001A0008091610190916201A0916301B09164011D
:1001B00026B5A89B05C02F3F19F00196A11DB11DC2
:1001C0003FBFBA2FA92F982F8827BC01CD01620FFE
:1001D000711D811D911D42E0660F771F881F991FB9
:1001E0004A95D1F708958F929F92AF92BF92CF9286
:1001F000DF92EF92FF920E94CE004B015C0184EFF0
:10020000C82EDD24D394E12CF12C0E94CE00681975
:1002100079098A099B09683E734081059105A8F315
:1002200021E0C21AD108E108F10888EE880E83E0C7
:10023000981EA11CB11CC114D104E104F10429F7DA
:10024000FF90EF90DF90CF90BF90AF909F908F90F6
:10025000089580915B0190915A01891B990B089533
:100260000895089520913301260F3327331F21323B
:100270003105ECF42091DB01FC0190E080E02430BA
:1002800069F082E00895A09133012191AC014D5EA7
:100290005E4FA40FB52FB11D2C930196861798F3CE
:1002A00080913301680F6093330180E0089581E00D
:1002B00008951092DB0181E08093BA011092B5019C
:1002C00061E082E10E94820061E083E10E9482009D
:1002D000E9EBF0E080818E7F808380818D7F808359
:1002E00088E48093B80085E48093BC000895CF93A0
:1002F000DF9391E0909312018823B9F0C091B80088
:10030000D091BA008091BC008A7B8093BC0060E0F1
:1003100082E10E94820060E083E10E9482000E94EC
:100320005901D093BA00C093B800DF91CF910895DE
:10033000CF92DF92EF92FF920F931F93CF93DF93B1
:10034000D82FC62F613208F098C00E94CE006B01F2
:100350007C018091DB0181116BC081E08093DB0126
:100360008093BA019FEF9093B9011092B8019C0F4E
:100370009093B7018093B6018091B601DD0FD82B21
:10038000D093B6018091B501813009F078C0109208
:10039000B5010E94CE006B017C018091B601809373
:1003A000BB008091DD019091DE01A091DF01B09151
:1003B000E001892B8A2B8B2BA1F00E94CE000091AB
:1003C000DD011091DE012091DF013091E0016C1917
:1003D0007D098E099F09061717072807390708F4B2
:1003E00048C08091BC0083FDD8CF85EC8093BC00D1
:1003F0000E94CE006B017C018091DB01813009F409
:1004000040C08091B8018C1710F4C091B801E5E9A3
:10041000F1E0ABEBB1E080E08C1355C08C2FDF91A5
:10042000CF911F910F91FF90EF90DF90CF900895A3
:100430008091DD019091DE01A091DF01B091E0019A
:10044000892B8A2B8B2B09F484CF0E94CE0000913C
:10045000DD011091DE012091DF013091E0016C1986
:100460007D098E099F09061717072807390708F025
:1004700070CF8091DC010E947701C0E0CFCF85EE84
:10048000B5CF8091DD019091DE01A091DF01B091A7
:10049000E001892B8A2B8B2B09F4AECF0E94CE0072
:1004A0000091DD011091DE012091DF013091E0012A
:1004B0006C197D098E099F09061717072807390748
:1004C00008F09ACFD6CF91919D938F5FA5CF8F9251
:1004D0009F92AF92BF92CF92DF92EF92FF920F93D3
:1004E0001F93CF93DF93D0919401D13208F0D7C0FE
:1004F000182FC09193010E94CE006B017C01809166
:10050000DB0181116BC082E08093DB011093BA01A3
:100510008FEF8093B9011092B801D093B701A3E790
:10052000B1E0E5E9F1E080E0D81391C01092B601A6
:100530008091B601CC0FC82BC093B6018091B50154
:10054000813009F088C01092B5010E94CE006B0185
:100550007C018091B6018093BB008091DD01909178
:10056000DE01A091DF01B091E001892B8A2B8B2B5A
:10057000A1F00E94CE000091DD011091DE012091DA
:10058000DF013091E0016C197D098E099F09061782
:1005900017072807390708F442C08091BC0083FD83
:1005A000D8CF85EC8093BC000E94CE006B017C010B
:1005B0008091DB01823009F450C08091B9018F3FF6
:1005C00009F46FC08091B901803209F46CC0809148
:1005D000B901803309F469C084E026C08091DD014F
:1005E0009091DE01A091DF01B091E001892B8A2B6F
:1005F0008B2B09F484CF0E94CE008090DD01909077
:10060000DE01A090DF01B090E0016C197D098E0938
:100610009F0986169706A806B90608F070CF809144
:10062000DC010E94770185E0109272011092940122
:1006300010927101DF91CF911F910F91FF90EF9078
:10064000DF90CF90BF90AF909F908F9008959D9135
:1006500091938F5F69CF85EEA5CF8091DD01909159
:10066000DE01A091DF01B091E001892B8A2B8B2B59
:1006700009F49ECF0E94CE000091DD011091DE01B1
:100680002091DF013091E0016C197D098E099F09ED
:10069000061717072807390708F08ACFC0CF81E06F
:1006A000C3CF80E0C1CF82E0BFCF83E0BDCF08954C
:1006B000E0915A0180915B01E81730F4F0E0E554D5
:1006C000FE4F808190E008958FEF9FEF0895909105
:1006D0005A0180915B012FEF3FEF981748F4E92F03
:1006E000F0E0E554FE4F208130E09F5F90935A0187
:1006F000C9010895CF92DF92EF92FF920F931F935B
:10070000CF93DF937C01CB018A01209171012223D9
:1007100089F0EB016B01C40ED51ECC15DD0569F027
:100720006991D701ED91FC910190F081E02DC70115
:100730000995F3CF642F0E943201C801DF91CF9158
:100740001F910F91FF90EF90DF90CF900895CF937E
:10075000DF931F92CDB7DEB7698320917101222309
:10076000F9F020919401203258F021E030E0FC01B2
:100770003383228390E080E00F90DF91CF91089542
:1007800080917201E82FF0E0ED58FE4F998190833F
:100790008F5F809372018093940181E090E0ECCFB1
:1007A00061E0CE0101960E943201F7CF90E080E037
:1007B000089585ED8093BC008091DD019091DE016C
:1007C000A091DF01B091E0010796A11DB11D23E0CA
:1007D000B695A795979587952A95D1F72091BC0056
:1007E00024FD03C01092DB0108954091DD0150917A
:1007F000DE016091DF017091E001452B462B472B14
:1008000069F30097A105B10541F025E32A95F1F7B9
:1008100000000197A109B109E1CF8091DC010C949E
:1008200077011F920F920FB60F9211242F933F93CF
:100830008F939F93AF93BF9380915D0190915E01E1
:10084000A0915F01B091600130915C0123E0230F22
:100850002D3758F50196A11DB11D20935C018093A1
:100860005D0190935E01A0935F01B0936001809160
:10087000610190916201A0916301B09164010196C0
:10088000A11DB11D8093610190936201A09363014A
:10089000B0936401BF91AF919F918F913F912F9140
:1008A0000F900FBE0F901F90189526E8230F029609
:1008B000A11DB11DD2CF1F920F920FB60F9211241E
:1008C0002F933F934F935F936F937F938F939F9358
:1008D000AF93BF93EF93FF938091B900887F8036E9
:1008E00009F44AC0F0F5883209F4A7C018F5803140
:1008F00009F49BC0B8F4882309F4F9C0883009F4DE
:1009000094C0FF91EF91BF91AF919F918F917F9193
:100910006F915F914F913F912F910F900FBE0F906C
:100920001F901895883109F488C0803251F7809360
:10093000B90114C0803409F49DC040F48033B9F388
:100940008833F9F68093B90185ECB0C0803509F49D
:1009500085C0883509F496C0883499F60E94D90379
:10096000D0CF883909F48CC038F5883729F050F495
:10097000883611F0803729F683E08093DB011092EE
:10098000550157C0883809F47BC0803919F0803888
:1009900009F0B7CF80915501803208F071C0E09125
:1009A000550181E08E0F809355018091BB00F0E0EE
:1009B000EB5CFE4F80833DC0803B39F0E0F4803A31
:1009C00009F479C0883A09F09CCF84E08093DB0178
:1009D0001092340110923301E0915801F0915901C5
:1009E00009958091330181110FC081E0809333011B
:1009F0001092130109C0803C09F4A6CF883C09F489
:100A0000A3CF883B09F07DCFE091340181E08E0FC8
:100A100080933401F0E0ED5EFE4F80818093BB0057
:100A2000909134018091330129C08091B601809367
:100A3000BB0085EC8093BC0064CF9091B80180919D
:100A4000B701981758F5E091B80181E08E0F8093B7
:100A5000B801F0E0EB56FE4F8081E9CFE091B8019C
:100A600081E08E0F8093B8018091BB00F0E0EB56DF
:100A7000FE4F80839091B8018091B7019817C8F21A
:100A800085E8D8CFE091B80181E08E0F8093B8015E
:100A90008091BB00F0E0EB56FE4F80838091BA015D
:100AA00081115CCF81E08093B50184EA8093BC0022
:100AB0001092DB0126CF85EC8093BC001092DB0105
:100AC00080915501803230F4E0915501F0E0EB5C0B
:100AD000FE4F10826091550170E0E0915601F09157
:100AE000570185E391E00995109255010ACF1092C4
:100AF000B90134CF789484B5826084BD84B58160B7
:100B000084BD85B5826085BD85B5816085BD8091D8
:100B10006E00816080936E00109281008091810050
:100B20008260809381008091810081608093810048
:100B3000809180008160809380008091B10084600A
:100B40008093B1008091B00081608093B00080916B
:100B50007A00846080937A0080917A00826080932A
:100B60007A0080917A00816080937A0080917A0087
:100B7000806880937A001092C1000E94590180E33E
:100B800091E0909359018093580181E391E0909313
:100B9000570180935601C1E0D0E400E010E0C0931B
:100BA0007101D0939301109272011092940163EF3E
:100BB00085E691E00E94A70381E00E9467020E94FF
:100BC000F30062E080E40E94980110925A01809341
:100BD0005B01823041F485E691E00E94670385E67F
:100BE00091E00E946703C09371011092720110920C
:100BF000940165EF85E691E00E94A70381E00E94E1
:100C000067020E94F30062E080E40E949801109263
:100C10005A0180935B01823041F485E691E00E94A5
:100C2000670385E691E00E9467030115110509F449
:100C3000B6CF0E940000B3CFE5E6F1E01382128246
:100C400088EE93E0A0E0B0E084839583A683B78329
:100C500084E091E0918380830895EE0FFF1F05905B
:0A0C6000F491E02D0994F894FFCF01
:100C6A0000000000A7037A03D6035703290167038C
:020C7A0058031D
:00000001FF
