:100000000C9458000C9480000C9480000C94800098
:100010000C9480000C9480000C9480000C94800060
:100020000C9480000C9480000C9480000C94800050
:100030000C9480000C9480000C9480000C94800040
:100040000C944C060C9480000C94BC060C94960600
:100050000C9480000C9480000C9480000C94800020
:100060000C94EE060C94800000000000250028008F
:100070002B00040404040404040402020202020229
:10008000030303030303010204081020408001025C
:1000900004081020010204081020000000080002DB
:1000A00001000003040700000000000000000D082C
:1000B00011241FBECFEFD8E0DEBFCDBF11E0A0E01E
:1000C000B1E0ECE2F8E102C005900D92A433B10773
:1000D000D9F722E0A4E3B1E001C01D92A83AB2072B
:1000E000E1F710E0C8E5D0E004C02197FE010E94CE
:1000F000D209C735D107C9F70E9446080C94140CE1
:100100000C94000090E0FC01E656FF4F2491FC01A6
:10011000EA57FF4F3491FC01EE58FF4FE491EE2374
:10012000C9F0222339F0233001F1A8F4213019F16C
:10013000223029F1F0E0EE0FFF1FE859FF4FA591A3
:10014000B4918FB7F894EC91611126C030953E239D
:100150003C938FBF08952730A9F02830C9F0243090
:1001600049F7809180008F7D03C0809180008F7758
:1001700080938000DFCF84B58F7784BDDBCF84B5DB
:100180008F7DFBCF8091B0008F778093B000D2CF6E
:100190008091B0008F7DF9CF3E2BDACF3FB7F89436
:1001A00080918B0190918C01A0918D01B0918E0175
:1001B00026B5A89B05C02F3F19F00196A11DB11DC2
:1001C0003FBFBA2FA92F982F8827BC01CD01620FFE
:1001D000711D811D911D42E0660F771F881F991FB9
:1001E0004A95D1F708958F929F92AF92BF92CF9286
:1001F000DF92EF92FF920E94CE004B015C0184EFF0
:10020000C82EDD24D394E12CF12C0E94CE00681975
:1002100079098A099B09683E734081059105A8F315
:1002200021E0C21AD108E108F10888EE880E83E0C7
:10023000981EA11CB11CC114D104E104F10429F7DA
:10024000FF90EF90DF90CF90BF90AF909F908F90F6
:10025000089580917D0190917C01891B990B0895EF
:1002600008950895AF92BF92CF92DF92EF92FF92DE
:100270000F931F93CF93DF936C017B018B01040FCE
:10028000151FEB015E01AE18BF08C017D10759F06A
:100290006991D601ED91FC910190F081E02DC601AC
:1002A0000995892B79F7C501DF91CF911F910F91A6
:1002B000FF90EF90DF90CF90BF90AF900895FC013A
:1002C000538D448D252F30E0842F90E0821B930BBB
:1002D000541710F0CF96089501970895FC01918D61
:1002E000828D981761F0A28DAE0FBF2FB11D5D9664
:1002F0008C91928D9F5F9F73928F90E008958FEF06
:100300009FEF0895FC01918D828D981731F0828DB9
:10031000E80FF11D858D90E008958FEF9FEF089510
:10032000FC01918D228D892F90E0805C9F4F821B74
:1003300091098F73992708958FEF91E00E949001A2
:1003400021E0892B09F420E0822F089580E090E0DD
:10035000892B29F00E949C0181110C9400000895C2
:10036000FC01A48DA80FB92FB11DA35ABF4F2C912A
:10037000848D90E001968F739927848FA689B78921
:100380002C93A089B1898C91837080648C93938D18
:10039000848D981306C00288F389E02D80818F7DBB
:1003A00080830895EF92FF920F931F93CF93DF9373
:1003B000EC0181E0888F9B8D8C8D98131AC0E889A1
:1003C000F989808185FF15C09FB7F894EE89FF8970
:1003D0006083E889F98980818370806480839FBF0E
:1003E00081E090E0DF91CF911F910F91FF90EF900E
:1003F0000895F62E0B8D10E00F5F1F4F0F7311271E
:10040000E02E8C8D8E110CC00FB607FCFACFE88958
:10041000F989808185FFF5CFCE010E94B001F1CF2F
:10042000EB8DEC0FFD2FF11DE35AFF4FF0829FB7CC
:10043000F8940B8FEA89FB8980818062CFCF682F87
:100440008FEF91E00C94D201CF93DF93EC01888D74
:100450008823B9F0AA89BB89E889F9898C9185FD3F
:1004600003C0808186FD0DC00FB607FCF7CF8C91CD
:1004700085FFF2CF808185FFEDCFCE010E94B001D4
:10048000E9CFDF91CF91089520915501260F3327B1
:10049000331F21323105ECF42091F901FC0190E089
:1004A00080E0243069F082E00895A0915501219107
:1004B000AC014B5C5E4FA40FB52FB11D2C93019680
:1004C000861798F380915501680F6093550180E07D
:1004D000089581E008951092F90181E08093D80198
:1004E0001092D30161E082E10E94820061E083E129
:1004F0000E948200E9EBF0E080818E7F8083808122
:100500008D7F808388E48093B80085E48093BC006D
:100510000895CF93DF9391E0909334018823B9F04D
:10052000C091B800D091BA008091BC008A7B8093C2
:10053000BC0060E082E10E94820060E083E10E94F2
:1005400082000E946B02D093BA00C093B800DF9182
:10055000CF910895CF92DF92EF92FF920F931F9366
:10056000CF93DF93D82FC62F613208F098C00E9436
:10057000CE006B017C018091F90181116BC081E09B
:100580008093F9018093D8019FEF9093D701109247
:10059000D6019C0F9093D5018093D4018091D40112
:1005A000DD0FD82BD093D4018091D301813009F095
:1005B00078C01092D3010E94CE006B017C01809123
:1005C000D4018093BB008091FB019091FC01A0912C
:1005D000FD01B091FE01892B8A2B8B2BA1F00E948B
:1005E000CE000091FB011091FC012091FD013091A2
:1005F000FE016C197D098E099F0906171707280748
:10060000390708F448C08091BC0083FDD8CF85EC41
:100610008093BC000E94CE006B017C018091F901A7
:10062000813009F440C08091D6018C1710F4C0913C
:10063000D601E3EBF1E0A9EDB1E080E08C1355C009
:100640008C2FDF91CF911F910F91FF90EF90DF9052
:10065000CF9008958091FB019091FC01A091FD0144
:10066000B091FE01892B8A2B8B2B09F484CF0E9439
:10067000CE000091FB011091FC012091FD01309111
:10068000FE016C197D098E099F09061717072807B7
:10069000390708F070CF8091FA010E948902C0E00A
:1006A000CFCF85EEB5CF8091FB019091FC01A09159
:1006B000FD01B091FE01892B8A2B8B2B09F4AECF63
:1006C0000E94CE000091FB011091FC012091FD01E0
:1006D0003091FE016C197D098E099F0906171707D5
:1006E0002807390708F09ACFD6CF91919D938F5F55
:1006F000A5CF8F929F92AF92BF92CF92DF92EF924F
:10070000FF920F931F93CF93DF93D091B201D13219
:1007100008F0D7C0182FC091B1010E94CE006B0124
:100720007C018091F90181116BC082E08093F90115
:100730001093D8018FEF8093D7011092D601D093F8
:10074000D501A1E9B1E0E3EBF1E080E0D81391C07D
:100750001092D4018091D401CC0FC82BC093D40146
:100760008091D301813009F088C01092D3010E949A
:10077000CE006B017C018091D4018093BB008091FD
:10078000FB019091FC01A091FD01B091FE01892B2C
:100790008A2B8B2BA1F00E94CE000091FB011091BF
:1007A000FC012091FD013091FE016C197D098E093B
:1007B0009F09061717072807390708F442C08091D8
:1007C000BC0083FDD8CF85EC8093BC000E94CE0096
:1007D0006B017C018091F901823009F450C0809155
:1007E000D7018F3F09F46FC08091D701803209F49F
:1007F0006CC08091D701803309F469C084E026C0C1
:100800008091FB019091FC01A091FD01B091FE014E
:10081000892B8A2B8B2B09F484CF0E94CE008090E9
:10082000FB019090FC01A090FD01B090FE016C19BD
:100830007D098E099F0986169706A806B90608F055
:1008400070CF8091FA010E94890285E01092900198
:100850001092B20110928F01DF91CF911F910F91F1
:10086000FF90EF90DF90CF90BF90AF909F908F90D0
:1008700008959D9191938F5F69CF85EEA5CF80916B
:10088000FB019091FC01A091FD01B091FE01892B2B
:100890008A2B8B2B09F49ECF0E94CE000091FB0186
:1008A0001091FC012091FD013091FE016C197D0930
:1008B0008E099F09061717072807390708F08ACFFE
:1008C000C0CF81E0C3CF80E0C1CF82E0BFCF83E063
:1008D000BDCF0895E0917C0180917D01E81730F44F
:1008E000F0E0E752FE4F808190E008958FEF9FEF98
:1008F000089590917C0180917D012FEF3FEF981733
:1009000048F4E92FF0E0E752FE4F208130E09F5F8E
:1009100090937C01C9010895CF92DF92EF92FF92EC
:100920000F931F93CF93DF937C01CB018A0120911A
:100930008F01222389F0EB016B01C40ED51ECC156B
:10094000DD0569F06991D701ED91FC910190F0818D
:10095000E02DC7010995F3CF642F0E944402C8011E
:10096000DF91CF911F910F91FF90EF90DF90CF908B
:100970000895CF93DF931F92CDB7DEB7698320919F
:100980008F012223F9F02091B201203258F021E0AA
:1009900030E0FC013383228390E080E00F90DF9110
:1009A000CF91089580919001E82FF0E0EF56FE4F2F
:1009B000998190838F5F809390018093B20181E051
:1009C00090E0ECCF61E0CE0101960E944402F7CFA7
:1009D00090E080E00895FC0101900020E9F7319754
:1009E000AF01481B590BBC018FEF91E00C94320111
:1009F0008F929F92AF92BF920F931F93CF93DF93EB
:100A0000CDB7DEB7A1970FB6F894DEBF0FBECDBF4E
:100A100019A2423008F44AE08E010F5D1F4F842E68
:100A2000912CB12CA12CA50194010E94B009E62FB4
:100A3000B901CA01EA30F4F4E05DD801EE938D010A
:100A4000232B242B252B79F790E080E0109719F0C9
:100A5000CD010E94EB04A1960FB6F894DEBF0FBE45
:100A6000CDBFDF91CF911F910F91BF90AF909F901D
:100A70008F900895E95CE1CF4F925F926F927F92E1
:100A80008F929F92AF92BF92CF92DF92EF92FF929E
:100A90000F931F93CF936B017C01742EAC019B01CC
:100AA0000E940F0C882399F084E291E0CF911F916E
:100AB0000F91FF90EF90DF90CF90BF90AF909F90FD
:100AC0008F907F906F905F904F900C94EB04460155
:100AD0005701E894B7F82FEF3FEF4FE75FE7C50105
:100AE000B4010E940F0C81110DC02FEF3FEF4FE7B3
:100AF0005FE7C501B4010E94450A18161CF488E29C
:100B000091E0D4CF2FEF3FEF4FE75FE4C701B6018D
:100B10000E949D0B18161CF48CE291E0C7CF2FEFBA
:100B20003FEF4FE75FECC701B6010E94450A87FD22
:100B3000F3CF20E030E0A901C701B6010E94450AC9
:100B400010E000E087FF08C08DE20E941F028C01C8
:100B5000F7FAF094F7F8F094C0E060E070E080E01D
:100B60009FE37C1641F020E030E040E251E40E9437
:100B70004A0ACF5FF6CFA70196010E94D9092B013F
:100B80003C010E94BC0A4B015C014AE00E94F8044F
:100B90007C01E00EF11ECC23B1F1C501B4010E942D
:100BA000EB0A9B01AC01C301B2010E94D8094B01C1
:100BB0005C018EE20E941F02E80EF91EC15018F17E
:100BC00020E030E040E251E4C501B4010E94A20BF4
:100BD0002B013C010E94BC0A4B01B12CA12C4AE024
:100BE000C501B4010E94F804E80EF91EC501B40164
:100BF0000E94EB0A9B01AC01C301B2010E94D8091B
:100C00004B015C01DBCFC701CF911F910F91FF908A
:100C1000EF90DF90CF90BF90AF909F908F907F909C
:100C20006F905F904F90089585ED8093BC00809108
:100C3000FB019091FC01A091FD01B091FE0107968E
:100C4000A11DB11D23E0B695A795979587952A9587
:100C5000D1F72091BC0024FD03C01092F901089542
:100C60004091FB015091FC016091FD017091FE01EA
:100C7000452B462B472B69F30097A105B10541F0A1
:100C800025E32A95F1F700000197A109B109E1CF09
:100C90008091FA010C9489021F920F920FB60F9265
:100CA00011242F933F938F939F93AF93BF93809182
:100CB000870190918801A0918901B0918A013091BA
:100CC000860123E0230F2D3758F50196A11DB11D94
:100CD000209386018093870190938801A0938901D6
:100CE000B0938A0180918B0190918C01A0918D012C
:100CF000B0918E010196A11DB11D80938B0190933F
:100D00008C01A0938D01B0938E01BF91AF919F9103
:100D10008F913F912F910F900FBE0F901F901895BC
:100D200026E8230F0296A11DB11DD2CF1F920F926C
:100D30000FB60F9211242F933F934F935F936F93AE
:100D40007F938F939F93AF93BF93EF93FF938FEF17
:100D500091E00E94B001FF91EF91BF91AF919F91FF
:100D60008F917F916F915F914F913F912F910F9054
:100D70000FBE0F901F9018951F920F920FB60F92F3
:100D800011242F938F939F93EF93FF93E0910F0282
:100D9000F09110028081E0911502F091160282FD1F
:100DA0001BC09081809118028F5F8F732091190270
:100DB000821741F0E0911802F0E0E150FE4F958F6C
:100DC00080931802FF91EF919F918F912F910F9037
:100DD0000FBE0F901F9018958081F4CF1F920F9235
:100DE0000FB60F9211242F933F934F935F936F93FE
:100DF0007F938F939F93AF93BF93EF93FF938091D4
:100E0000B900887F803609F44AC0F0F5883209F4C9
:100E1000A7C018F5803109F49BC0B8F4882309F401
:100E2000F9C0883009F494C0FF91EF91BF91AF9160
:100E30009F918F917F916F915F914F913F912F91F2
:100E40000F900FBE0F901F901895883109F488C03D
:100E5000803251F78093D70114C0803409F49DC0CB
:100E600040F48033B9F38833F9F68093D70185ECE9
:100E7000B0C0803509F485C0883509F496C088343F
:100E800099F60E941406D0CF883909F48CC038F541
:100E9000883729F050F4883611F0803729F683E03E
:100EA0008093F9011092770157C0883809F47BC00C
:100EB000803919F0803809F0B7CF809177018032FE
:100EC00008F071C0E091770181E08E0F8093770187
:100ED0008091BB00F0E0E95AFE4F80833DC0803B2B
:100EE00039F0E0F4803A09F479C0883A09F09CCFEF
:100EF00084E08093F9011092560110925501E0911F
:100F00007A01F0917B0109958091550181110FC003
:100F100081E0809355011092350109C0803C09F4AD
:100F2000A6CF883C09F4A3CF883B09F07DCFE091A0
:100F3000560181E08E0F80935601F0E0EB5CFE4F8E
:100F400080818093BB00909156018091550129C00A
:100F50008091D4018093BB0085EC8093BC0064CF6A
:100F60009091D6018091D501981758F5E091D6015E
:100F700081E08E0F8093D601F0E0ED54FE4F80812A
:100F8000E9CFE091D60181E08E0F8093D601809168
:100F9000BB00F0E0ED54FE4F80839091D60180912C
:100FA000D5019817C8F285E8D8CFE091D60181E045
:100FB0008E0F8093D6018091BB00F0E0ED54FE4F80
:100FC00080838091D80181115CCF81E08093D3012F
:100FD00084EA8093BC001092F90126CF85EC8093BF
:100FE000BC001092F90180917701803230F4E091D9
:100FF0007701F0E0E95AFE4F10826091770170E0CE
:10100000E0917801F091790187E591E009951092DE
:1010100077010ACF1092D70134CFEFEFF1E01382BE
:10102000128288EE93E0A0E0B0E084839583A683EB
:10103000B78324E031E03183208325EC30E035872D
:10104000248724EC30E03787268720EC30E0318B92
:10105000208B21EC30E0338B228B22EC30E0358B7F
:10106000248B26EC30E0378B268B118E128E138E5C
:10107000148EECE9F2E01382128284839583A683B6
:10108000B78386E191E0918380830895789484B555
:10109000826084BD84B5816084BD85B5826085BD74
:1010A00085B5816085BD80916E00816080936E0002
:1010B00010928100809181008260809381008091F4
:1010C00081008160809381008091800081608093A5
:1010D00080008091B10084608093B1008091B00065
:1010E00081608093B00080917A00846080937A0060
:1010F00080917A00826080937A0080917A0081608A
:1011000080937A0080917A00806880937A001092B0
:10111000C1000E946B0280E391E090937B01809379
:101120007A0181E391E09093790180937801E091D5
:101130000F02F091100282E08083E0910B02F091A7
:101140000C021082E0910D02F0910E028FEC808370
:1011500010921702E0911302F091140286E080834E
:10116000E0911102F0911202808180618083E09110
:101170001102F0911202808188608083E091110257
:10118000F0911202808180688083E0911102F091D9
:10119000120280818F7D8083DD24D39480E4C82E69
:1011A00000E010E0D0928F01C092B1011092900146
:1011B0001092B20163EF8CE992E00E94B90481E0E1
:1011C0000E9479030E94F30062E080E40E94AA0278
:1011D00010927C0180937D018230E1F58CE992E0F0
:1011E0000E9479047C018CE992E00E947904EC0170
:1011F000B70190E080E00E94EB0A20E030E040E898
:1012000053E40E94A20B4B015C01BE0190E080E020
:101210000E94EB0A9B01AC01C501B4010E94D909EF
:1012200022E538EB4FE253E40E94A20B20E030E0CD
:1012300040E857E30E94A20B26E636E64BE352E471
:101240000E94D80960938201709383018093840186
:1012500090938501D0928F01109290011092B2016B
:1012600065EF8CE992E00E94B90481E00E94790365
:101270000E94F30062E080E40E94AA0210927C01C6
:1012800080937D018230E1F58CE992E00E9479043F
:101290007C018CE992E00E947904EC01B70190E0B6
:1012A00080E00E94EB0A20E030E040E853E40E9436
:1012B000A20B4B015C01BE0190E080E00E94EB0AB2
:1012C0009B01AC01C501B4010E94D90920E030E0C6
:1012D0004AEF52E40E94A20B20E030E040E857E3DE
:1012E0000E94A20B20E030E040EC50E40E94D809BC
:1012F00060937E0170937F018093800190938101C0
:101300008AE20E941F0260918201709183018091A4
:1013100084019091850142E00E943C0580E391E0C8
:101320000E94EB0484E20E941F0260917E01709192
:101330007F01809180019091810142E00E943C05F3
:1013400080E391E00E94EB040115110509F42ACF16
:101350000E949C01882309F425CF0E94000022CF1F
:10136000A1E21A2EAA1BBB1BFD010DC0AA1FBB1FA9
:10137000EE1FFF1FA217B307E407F50720F0A21B1B
:10138000B30BE40BF50B661F771F881F991F1A9488
:1013900069F760957095809590959B01AC01BD01B2
:1013A000CF010895EE0FFF1F0590F491E02D0994F1
:1013B0005058BB27AA270E94F0090C94630B0E9487
:1013C000550B38F00E945C0B20F039F49F3F19F464
:1013D00026F40C94520B0EF4E095E7FB0C944C0BA6
:1013E000E92F0E94740B58F3BA176207730784073A
:1013F000950720F079F4A6F50C94960B0EF4E09581
:101400000B2EBA2FA02D0B01B90190010C01CA01BE
:10141000A0011124FF27591B99F0593F50F4503E69
:1014200068F11A16F040A22F232F342F4427585F5B
:10143000F3CF469537952795A795F0405395C9F773
:101440007EF41F16BA0B620B730B840BBAF091502B
:10145000A1F0FF0FBB1F661F771F881FC2F70EC0CA
:10146000BA0F621F731F841F48F48795779567959D
:10147000B795F7959E3F08F0B0CF9395880F08F089
:101480009927EE0F9795879508950E94280B08F4E9
:1014900081E008950E945E0A0C94630B0E945C0B2D
:1014A00058F00E94550B40F029F45F3F29F00C944E
:1014B0004C0B51110C94970B0C94520B0E94740B13
:1014C00068F39923B1F3552391F3951B550BBB2773
:1014D000AA2762177307840738F09F5F5F4F220FB8
:1014E000331F441FAA1FA9F335D00E2E3AF0E0E8AF
:1014F00032D091505040E695001CCAF72BD0FE2FF9
:1015000029D0660F771F881FBB1F2617370748078C
:10151000AB07B0E809F0BB0B802DBF01FF27935844
:101520005F4F3AF09E3F510578F00C944C0B0C94B1
:10153000970B5F3FE4F3983ED4F3869577956795D4
:10154000B795F7959F5FC9F7880F911D9695879579
:1015500097F90895E1E0660F771F881FBB1F621798
:1015600073078407BA0720F0621B730B840BBA0B56
:10157000EE1F88F7E09508950E947C0B88F09F5736
:1015800098F0B92F9927B751B0F0E1F0660F771FA7
:10159000881F991F1AF0BA95C9F714C0B13091F09D
:1015A0000E94960BB1E008950C94960B672F782F4C
:1015B0008827B85F39F0B93FCCF386957795679562
:1015C000B395D9F73EF490958095709561957F4FCE
:1015D0008F4F9F4F0895E89409C097FB3EF4909574
:1015E0008095709561957F4F8F4F9F4F9923A9F0FC
:1015F000F92F96E9BB279395F6958795779567958B
:10160000B795F111F8CFFAF4BB0F11F460FF1BC0CE
:101610006F5F7F4F8F4F9F4F16C0882311F096E961
:1016200011C0772321F09EE8872F762F05C066230F
:1016300071F096E8862F70E060E02AF09A95660FC8
:10164000771F881FDAF7880F9695879597F9089581
:10165000990F0008550FAA0BE0E8FEEF16161706C3
:10166000E807F907C0F012161306E407F50798F02B
:10167000621B730B840B950B39F40A2661F0232B44
:10168000242B252B21F408950A2609F4A140A695C0
:101690008FEF811D811D089597F99F6780E870E0A5
:1016A00060E008959FEF80EC089500240A941616D8
:1016B000170618060906089500240A941216130640
:1016C000140605060895092E0394000C11F48823CE
:1016D00052F0BB0F40F4BF2B11F460FF04C06F5FEA
:1016E0007F4F8F4F9F4F089557FD9058440F551FC0
:1016F00059F05F3F71F04795880F97FB991F61F094
:101700009F3F79F087950895121613061406551F0A
:10171000F2CF4695F1DF08C0161617061806991F76
:10172000F1CF86957105610508940895E894BB276B
:1017300066277727CB0197F908950E94280B08F4B4
:101740008FEF08950E94B50B0C94630B0E94550B0C
:1017500038F00E945C0B20F0952311F00C944C0B98
:101760000C94520B11240C94970B0E94740B70F381
:10177000959FC1F3950F50E0551F629FF001729F36
:10178000BB27F00DB11D639FAA27F00DB11DAA1F45
:10179000649F6627B00DA11D661F829F2227B00D92
:1017A000A11D621F739FB00DA11D621F839FA00D1D
:1017B000611D221F749F3327A00D611D231F849F6D
:1017C000600D211D822F762F6A2F11249F575040C4
:1017D0009AF0F1F088234AF0EE0FFF1FBB1F661F3F
:1017E000771F881F91505040A9F79E3F510580F008
:1017F0000C944C0B0C94970B5F3FE4F3983ED4F39E
:10180000869577956795B795F795E7959F5FC1F7AB
:10181000FE2B880F911D9695879597F908950E9444
:0C182000280B880B990B0895F894FFCF5B
:10182C0000000000D20132015F01240290016E0120
:10183C00820100000000B9048C04E8046904290149
:10184C0079046A046E616E00696E66006F766600DC
:04185C000D0A000071
:00000001FF
